:020000040800F2
:1000000000000820A9050008D9030008DB03000848
:10001000DD030008DF030008E10300080000000022
:10002000000000000000000000000000E3030008E2
:10003000E503000800000000E7030008E9030008EA
:10004000F9050008F9050008F9050008F905000898
:10005000F9050008F9050008F9050008F905000888
:10006000F9050008F9050008F9050008F905000878
:10007000F9050008F9050008F9050008F905000868
:10008000F9050008F9050008F9050008F905000858
:10009000F9050008F9050008F9050008F905000848
:1000A000F9050008F9050008F9050008F905000838
:1000B000F9050008F9050008F9050008F905000828
:1000C000F9050008F9050008F9050008F905000818
:1000D000F9050008F9050008F9050008F905000808
:1000E000F9050008F9050008F9050008F9050008F8
:1000F000F9050008F9050008F9050008F9050008E8
:10010000F9050008F9050008F9050008F9050008D7
:10011000F9050008F9050008F9050008F9050008C7
:10012000F9050008F9050008F9050008F9050008B7
:10013000F9050008F9050008F9050008F9050008A7
:10014000F9050008F9050008F9050008F905000897
:10015000F9050008F9050008F9050008F905000887
:10016000F9050008F9050008F9050008F905000877
:10017000F9050008F9050008F9050008000000006D
:10018000F9050008F9050008F9050008F905000857
:10019000F9050008F9050008F9050008F905000847
:1001A000F9050008F9050008F9050008F905000837
:1001B000F9050008F9050008F9050008F905000827
:1001C000F9050008F905000800000000F90500081D
:1001D000F9050008F9050008F9050008F905000807
:1001E000F9050008F9050008F9050008F9050008F7
:0801F000F9050008F9050008FB
:1001F80010B5304A136823F00F0343F00703136068
:100208002C4B1B6803F00F03072BF9D12A4B1A68F4
:1002180042F440421A601A6842F480321A60274A4F
:10022800136843F480331360244B1B6813F4003FB6
:10023800FAD0224B5A6822491140224A0A435A608E
:100248001A6842F080721A601C4B1B6813F0007F1A
:10025800FAD0194B5B6813F4804FFAD0174B9A68A1
:1002680022F0F0029A609A6822F4E05242F4A05216
:100278009A609A6822F4604242F400429A609A684E
:1002880022F0030242F002029A600C4B9B6803F0D2
:100298000C03082BF9D10C4C204600F04BF92046F2
:1002A80000F06EF9054AD2F88C3023F08073C2F85A
:1002B8008C3010BD003C0240007000400038024005
:1002C8000080BCFF196C400000E6DF0C00B583B06D
:1002D800244B1A6C42F080521A641A6C02F0805255
:1002E8000192019A5A6C42F480425A645B6C03F49E
:1002F80080430093009B1C4BD96821F4E0610904FA
:10030800090C1A4A0A43DA60DA68C2F30222C2F117
:100318000703042B28BF04231946131D062B1FD9D6
:10032800033A4FF0FF338B40DB4303F00F03934056
:100338001B01DBB20C4A82F82330FFF759FF00F0AB
:1003480019F80B4C8023A3614FF47A7000F002F97E
:100358004FF40003A3614FF47A7000F0FBF8F0E764
:100368000022DEE70038024000ED00E00003FA0555
:100378000004024000B589B000230293039304935C
:10038800059306930793104B1A6B42F080021A6389
:100398001A6B02F080020192019A1A6B42F0020273
:1003A8001A631B6B03F002030093009B07484FF48A
:1003B80000038361802302930123039302A900F0C1
:1003C80010F809B05DF804FB003802400004024050
:1003D800FEE7FEE7FEE7FEE7FEE770477047704777
:1003E80070470B6893FAA3F3B3FA83FC57E08D6860
:1003F800826893FAA3F4B4FA84F464004FF0030E0D
:100408000EFA04F422EA040293FAA3F4B4FA84F488
:10041800640005FA04F4224382600C68CD684268DF
:1004280022EA040205FB04F42243426045E093FA01
:10043800A3F2B2FA82F2072A15D84D69026A93FA32
:10044800A3F4B4FA84F4A4000F2606FA04F422EA0A
:10045800040293FAA3F4B4FA84F4A40005FA04F4A9
:100468002243026241E04C69456A1A0A92FAA2FEE6
:10047800BEFA8EFE4FEA8E0E0F2606FA0EFE25EA0B
:100488000E0592FAA2F2B2FA82F2920004FA02F28D
:100498002A43426229E0002070BD0CF1010C0B6870
:1004A80033FA0CF244D0012202FA0CF21340F4D0D1
:1004B80070B54A68013A012A99D9C26893FAA3F437
:1004C800B4FA84F46400032505FA04F422EA040269
:1004D80093FAA3F4B4FA84F464000D6905FA04F4F9
:1004E8002243C2604A68022AA1D04A68046893FA83
:1004F800A3FEBEFA8EFE4FEA4E0E032505FA0EFE47
:1005080024EA0E0E93FAA3F3B3FA83F35B0002FA1C
:1005180003F34EEA030303600CF1010C0B6833FA92
:100528000CF2B8D0012202FA0CF21340F4D0C0E762
:1005380000207047064BA3FB00239B09013B4FF0AB
:10054800E02253610023936105231361704700BFC4
:10055800D34D621082B04FF0E0231B690193019BD9
:10056800B0F1FF3F00D0013038B14FF0E0231B69F4
:1005780013F4803FF8D00138F6E702B07047000066
:10058800014B1860704700BF00000020034AD2F8F2
:10059800883043F47003C2F88830704700ED00E0FB
:1005A800DFF834D0FFF7F2FF0C480D490D4A00235D
:1005B80002E0D458C4500433C4188C42F9D30A4A10
:1005C8000A4C002301E013600432A242FBD300F07E
:1005D80011F8FFF77BFE704700000820000000209C
:1005E800040000205C06000804000020040000202D
:1005F800FEE7000070B50D4D0D4C641BA4100026DD
:10060800A64209D10B4D0C4C00F018F8641BA4103D
:100618000026A64205D170BD55F8043B984701361F
:10062800EEE755F8043B98470136F2E70000000072
:10063800000000000000000000000000F8B500BF46
:10064800F8BC08BC9E467047F8B500BFF8BC08BCAB
:040658009E46704703
:04065C000024F40082
:04000005080005A941
:00000001FF
